{
    "_format": "hh-sol-artifact-1",
    "contractName": "SwoleProtocol",
    "sourceName": "contracts/SwoleProtocol.sol",
    "abi": [
        {
            "inputs": [],
            "stateMutability": "nonpayable",
            "type": "constructor"
        },
        {
            "anonymous": false,
            "inputs": [
                {
                    "indexed": true,
                    "internalType": "address",
                    "name": "owner",
                    "type": "address"
                },
                {
                    "indexed": true,
                    "internalType": "address",
                    "name": "approved",
                    "type": "address"
                },
                {
                    "indexed": true,
                    "internalType": "uint256",
                    "name": "tokenId",
                    "type": "uint256"
                }
            ],
            "name": "Approval",
            "type": "event"
        },
        {
            "anonymous": false,
            "inputs": [
                {
                    "indexed": true,
                    "internalType": "address",
                    "name": "owner",
                    "type": "address"
                },
                {
                    "indexed": true,
                    "internalType": "address",
                    "name": "operator",
                    "type": "address"
                },
                {
                    "indexed": false,
                    "internalType": "bool",
                    "name": "approved",
                    "type": "bool"
                }
            ],
            "name": "ApprovalForAll",
            "type": "event"
        },
        {
            "anonymous": false,
            "inputs": [
                {
                    "indexed": true,
                    "internalType": "address",
                    "name": "previousOwner",
                    "type": "address"
                },
                {
                    "indexed": true,
                    "internalType": "address",
                    "name": "newOwner",
                    "type": "address"
                }
            ],
            "name": "OwnershipTransferred",
            "type": "event"
        },
        {
            "anonymous": false,
            "inputs": [
                {
                    "indexed": true,
                    "internalType": "address",
                    "name": "from",
                    "type": "address"
                },
                {
                    "indexed": true,
                    "internalType": "address",
                    "name": "to",
                    "type": "address"
                },
                {
                    "indexed": true,
                    "internalType": "uint256",
                    "name": "tokenId",
                    "type": "uint256"
                }
            ],
            "name": "Transfer",
            "type": "event"
        },
        {
            "anonymous": false,
            "inputs": [
                {
                    "indexed": false,
                    "internalType": "uint256",
                    "name": "tokenId",
                    "type": "uint256"
                },
                {
                    "indexed": false,
                    "internalType": "string",
                    "name": "tokenURI",
                    "type": "string"
                },
                {
                    "indexed": false,
                    "internalType": "uint256",
                    "name": "royaltyPercentageForOwner",
                    "type": "uint256"
                }
            ],
            "name": "WorkoutMinted",
            "type": "event"
        },
        {
            "inputs": [],
            "name": "_royaltyAmount",
            "outputs": [
                {
                    "internalType": "uint256",
                    "name": "",
                    "type": "uint256"
                }
            ],
            "stateMutability": "view",
            "type": "function"
        },
        {
            "inputs": [
                {
                    "internalType": "address",
                    "name": "to",
                    "type": "address"
                },
                {
                    "internalType": "uint256",
                    "name": "tokenId",
                    "type": "uint256"
                }
            ],
            "name": "approve",
            "outputs": [],
            "stateMutability": "nonpayable",
            "type": "function"
        },
        {
            "inputs": [
                {
                    "internalType": "address",
                    "name": "owner",
                    "type": "address"
                }
            ],
            "name": "balanceOf",
            "outputs": [
                {
                    "internalType": "uint256",
                    "name": "",
                    "type": "uint256"
                }
            ],
            "stateMutability": "view",
            "type": "function"
        },
        {
            "inputs": [
                {
                    "internalType": "uint256",
                    "name": "tokenId",
                    "type": "uint256"
                }
            ],
            "name": "getApproved",
            "outputs": [
                {
                    "internalType": "address",
                    "name": "",
                    "type": "address"
                }
            ],
            "stateMutability": "view",
            "type": "function"
        },
        {
            "inputs": [
                {
                    "internalType": "address",
                    "name": "owner",
                    "type": "address"
                },
                {
                    "internalType": "address",
                    "name": "operator",
                    "type": "address"
                }
            ],
            "name": "isApprovedForAll",
            "outputs": [
                {
                    "internalType": "bool",
                    "name": "",
                    "type": "bool"
                }
            ],
            "stateMutability": "view",
            "type": "function"
        },
        {
            "inputs": [
                {
                    "internalType": "string",
                    "name": "_tokenURI",
                    "type": "string"
                }
            ],
            "name": "mintWorkout",
            "outputs": [],
            "stateMutability": "nonpayable",
            "type": "function"
        },
        {
            "inputs": [],
            "name": "name",
            "outputs": [
                {
                    "internalType": "string",
                    "name": "",
                    "type": "string"
                }
            ],
            "stateMutability": "view",
            "type": "function"
        },
        {
            "inputs": [],
            "name": "owner",
            "outputs": [
                {
                    "internalType": "address",
                    "name": "",
                    "type": "address"
                }
            ],
            "stateMutability": "view",
            "type": "function"
        },
        {
            "inputs": [
                {
                    "internalType": "uint256",
                    "name": "tokenId",
                    "type": "uint256"
                }
            ],
            "name": "ownerOf",
            "outputs": [
                {
                    "internalType": "address",
                    "name": "",
                    "type": "address"
                }
            ],
            "stateMutability": "view",
            "type": "function"
        },
        {
            "inputs": [],
            "name": "renounceOwnership",
            "outputs": [],
            "stateMutability": "nonpayable",
            "type": "function"
        },
        {
            "inputs": [
                {
                    "internalType": "uint256",
                    "name": "tokenId",
                    "type": "uint256"
                },
                {
                    "internalType": "uint256",
                    "name": "salePrice",
                    "type": "uint256"
                }
            ],
            "name": "royaltyInfo",
            "outputs": [
                {
                    "internalType": "address",
                    "name": "_receiver",
                    "type": "address"
                },
                {
                    "internalType": "uint256",
                    "name": "royaltyAmount",
                    "type": "uint256"
                }
            ],
            "stateMutability": "view",
            "type": "function"
        },
        {
            "inputs": [
                {
                    "internalType": "address",
                    "name": "from",
                    "type": "address"
                },
                {
                    "internalType": "address",
                    "name": "to",
                    "type": "address"
                },
                {
                    "internalType": "uint256",
                    "name": "tokenId",
                    "type": "uint256"
                }
            ],
            "name": "safeTransferFrom",
            "outputs": [],
            "stateMutability": "nonpayable",
            "type": "function"
        },
        {
            "inputs": [
                {
                    "internalType": "address",
                    "name": "from",
                    "type": "address"
                },
                {
                    "internalType": "address",
                    "name": "to",
                    "type": "address"
                },
                {
                    "internalType": "uint256",
                    "name": "tokenId",
                    "type": "uint256"
                },
                {
                    "internalType": "bytes",
                    "name": "_data",
                    "type": "bytes"
                }
            ],
            "name": "safeTransferFrom",
            "outputs": [],
            "stateMutability": "nonpayable",
            "type": "function"
        },
        {
            "inputs": [
                {
                    "internalType": "address",
                    "name": "operator",
                    "type": "address"
                },
                {
                    "internalType": "bool",
                    "name": "approved",
                    "type": "bool"
                }
            ],
            "name": "setApprovalForAll",
            "outputs": [],
            "stateMutability": "nonpayable",
            "type": "function"
        },
        {
            "inputs": [
                {
                    "internalType": "bytes4",
                    "name": "interfaceId",
                    "type": "bytes4"
                }
            ],
            "name": "supportsInterface",
            "outputs": [
                {
                    "internalType": "bool",
                    "name": "",
                    "type": "bool"
                }
            ],
            "stateMutability": "view",
            "type": "function"
        },
        {
            "inputs": [],
            "name": "symbol",
            "outputs": [
                {
                    "internalType": "string",
                    "name": "",
                    "type": "string"
                }
            ],
            "stateMutability": "view",
            "type": "function"
        },
        {
            "inputs": [
                {
                    "internalType": "uint256",
                    "name": "tokenId",
                    "type": "uint256"
                }
            ],
            "name": "tokenURI",
            "outputs": [
                {
                    "internalType": "string",
                    "name": "",
                    "type": "string"
                }
            ],
            "stateMutability": "view",
            "type": "function"
        },
        {
            "inputs": [
                {
                    "internalType": "address",
                    "name": "from",
                    "type": "address"
                },
                {
                    "internalType": "address",
                    "name": "to",
                    "type": "address"
                },
                {
                    "internalType": "uint256",
                    "name": "tokenId",
                    "type": "uint256"
                }
            ],
            "name": "transferFrom",
            "outputs": [],
            "stateMutability": "nonpayable",
            "type": "function"
        },
        {
            "inputs": [
                {
                    "internalType": "address",
                    "name": "newOwner",
                    "type": "address"
                }
            ],
            "name": "transferOwnership",
            "outputs": [],
            "stateMutability": "nonpayable",
            "type": "function"
        },
        {
            "inputs": [],
            "name": "withdraw",
            "outputs": [],
            "stateMutability": "nonpayable",
            "type": "function"
        }
    ],
    "bytecode": "0x60806040523480156200001157600080fd5b506040518060400160405280600d81526020017f53776f6c6550726f746f636f6c000000000000000000000000000000000000008152506040518060400160405280600581526020017f53574f4c45000000000000000000000000000000000000000000000000000000815250816000908051906020019062000096929190620001ae565b508060019080519060200190620000af929190620001ae565b505050620000d2620000c6620000e060201b60201c565b620000e860201b60201c565b6005600981905550620002c3565b600033905090565b6000600760009054906101000a900473ffffffffffffffffffffffffffffffffffffffff16905081600760006101000a81548173ffffffffffffffffffffffffffffffffffffffff021916908373ffffffffffffffffffffffffffffffffffffffff1602179055508173ffffffffffffffffffffffffffffffffffffffff168173ffffffffffffffffffffffffffffffffffffffff167f8be0079c531659141344cd1fd0a4f28419497f9722a3daafe3b4186f6b6457e060405160405180910390a35050565b828054620001bc906200025e565b90600052602060002090601f016020900481019282620001e057600085556200022c565b82601f10620001fb57805160ff19168380011785556200022c565b828001600101855582156200022c579182015b828111156200022b5782518255916020019190600101906200020e565b5b5090506200023b91906200023f565b5090565b5b808211156200025a57600081600090555060010162000240565b5090565b600060028204905060018216806200027757607f821691505b602082108114156200028e576200028d62000294565b5b50919050565b7f4e487b7100000000000000000000000000000000000000000000000000000000600052602260045260246000fd5b61345980620002d36000396000f3fe608060405234801561001057600080fd5b506004361061012c5760003560e01c806370a08231116100ad578063b88d4fde11610071578063b88d4fde1461031e578063c87b56dd1461033a578063e985e9c51461036a578063f2fde38b1461039a578063fad199e3146103b65761012c565b806370a082311461028c578063715018a6146102bc5780638da5cb5b146102c657806395d89b41146102e4578063a22cb465146103025761012c565b80632a55205a116100f45780632a55205a146101e75780633ccfd60b1461021857806342842e0e146102225780636352211e1461023e57806369b538241461026e5761012c565b806301ffc9a71461013157806306fdde0314610161578063081812fc1461017f578063095ea7b3146101af57806323b872dd146101cb575b600080fd5b61014b600480360381019061014691906121ac565b6103d2565b604051610158919061271c565b60405180910390f35b6101696104b4565b6040516101769190612737565b60405180910390f35b6101996004803603810190610194919061223f565b610546565b6040516101a6919061268c565b60405180910390f35b6101c960048036038101906101c49190612170565b6105cb565b005b6101e560048036038101906101e0919061206a565b6106e3565b005b61020160048036038101906101fc9190612268565b610743565b60405161020f9291906126f3565b60405180910390f35b6102206107c2565b005b61023c6004803603810190610237919061206a565b610900565b005b6102586004803603810190610253919061223f565b610920565b604051610265919061268c565b60405180910390f35b6102766109d2565b60405161028391906129d9565b60405180910390f35b6102a660048036038101906102a19190612005565b6109d8565b6040516102b391906129d9565b60405180910390f35b6102c4610a90565b005b6102ce610b18565b6040516102db919061268c565b60405180910390f35b6102ec610b42565b6040516102f99190612737565b60405180910390f35b61031c60048036038101906103179190612134565b610bd4565b005b610338600480360381019061033391906120b9565b610bea565b005b610354600480360381019061034f919061223f565b610c4c565b6040516103619190612737565b60405180910390f35b610384600480360381019061037f919061202e565b610d9e565b604051610391919061271c565b60405180910390f35b6103b460048036038101906103af9190612005565b610e32565b005b6103d060048036038101906103cb91906121fe565b610f2a565b005b60007f80ac58cd000000000000000000000000000000000000000000000000000000007bffffffffffffffffffffffffffffffffffffffffffffffffffffffff1916827bffffffffffffffffffffffffffffffffffffffffffffffffffffffff1916148061049d57507f5b5e139f000000000000000000000000000000000000000000000000000000007bffffffffffffffffffffffffffffffffffffffffffffffffffffffff1916827bffffffffffffffffffffffffffffffffffffffffffffffffffffffff1916145b806104ad57506104ac82610fa4565b5b9050919050565b6060600080546104c390612cd2565b80601f01602080910402602001604051908101604052809291908181526020018280546104ef90612cd2565b801561053c5780601f106105115761010080835404028352916020019161053c565b820191906000526020600020905b81548152906001019060200180831161051f57829003601f168201915b5050505050905090565b60006105518261100e565b610590576040517f08c379a000000000000000000000000000000000000000000000000000000000815260040161058790612919565b60405180910390fd5b6004600083815260200190815260200160002060009054906101000a900473ffffffffffffffffffffffffffffffffffffffff169050919050565b60006105d682610920565b90508073ffffffffffffffffffffffffffffffffffffffff168373ffffffffffffffffffffffffffffffffffffffff161415610647576040517f08c379a000000000000000000000000000000000000000000000000000000000815260040161063e90612979565b60405180910390fd5b8073ffffffffffffffffffffffffffffffffffffffff1661066661107a565b73ffffffffffffffffffffffffffffffffffffffff16148061069557506106948161068f61107a565b610d9e565b5b6106d4576040517f08c379a00000000000000000000000000000000000000000000000000000000081526004016106cb90612839565b60405180910390fd5b6106de8383611082565b505050565b6106f46106ee61107a565b8261113b565b610733576040517f08c379a000000000000000000000000000000000000000000000000000000000815260040161072a90612999565b60405180910390fd5b61073e838383611219565b505050565b60008061074f8461100e565b61078e576040517f08c379a000000000000000000000000000000000000000000000000000000000815260040161078590612859565b60405180910390fd5b60006064600954856107a09190612b8e565b6107aa9190612b5d565b90506107b585610920565b8192509250509250929050565b6107ca61107a565b73ffffffffffffffffffffffffffffffffffffffff166107e8610b18565b73ffffffffffffffffffffffffffffffffffffffff161461083e576040517f08c379a000000000000000000000000000000000000000000000000000000000815260040161083590612939565b60405180910390fd5b6000610848610b18565b9050600047905060008273ffffffffffffffffffffffffffffffffffffffff168260405161087590612677565b60006040518083038185875af1925050503d80600081146108b2576040519150601f19603f3d011682016040523d82523d6000602084013e6108b7565b606091505b50509050806108fb576040517f08c379a00000000000000000000000000000000000000000000000000000000081526004016108f2906129b9565b60405180910390fd5b505050565b61091b83838360405180602001604052806000815250610bea565b505050565b6000806002600084815260200190815260200160002060009054906101000a900473ffffffffffffffffffffffffffffffffffffffff169050600073ffffffffffffffffffffffffffffffffffffffff168173ffffffffffffffffffffffffffffffffffffffff1614156109c9576040517f08c379a00000000000000000000000000000000000000000000000000000000081526004016109c090612899565b60405180910390fd5b80915050919050565b60095481565b60008073ffffffffffffffffffffffffffffffffffffffff168273ffffffffffffffffffffffffffffffffffffffff161415610a49576040517f08c379a0000000000000000000000000000000000000000000000000000000008152600401610a4090612879565b60405180910390fd5b600360008373ffffffffffffffffffffffffffffffffffffffff1673ffffffffffffffffffffffffffffffffffffffff168152602001908152602001600020549050919050565b610a9861107a565b73ffffffffffffffffffffffffffffffffffffffff16610ab6610b18565b73ffffffffffffffffffffffffffffffffffffffff1614610b0c576040517f08c379a0000000000000000000000000000000000000000000000000000000008152600401610b0390612939565b60405180910390fd5b610b166000611480565b565b6000600760009054906101000a900473ffffffffffffffffffffffffffffffffffffffff16905090565b606060018054610b5190612cd2565b80601f0160208091040260200160405190810160405280929190818152602001828054610b7d90612cd2565b8015610bca5780601f10610b9f57610100808354040283529160200191610bca565b820191906000526020600020905b815481529060010190602001808311610bad57829003601f168201915b5050505050905090565b610be6610bdf61107a565b8383611546565b5050565b610bfb610bf561107a565b8361113b565b610c3a576040517f08c379a0000000000000000000000000000000000000000000000000000000008152600401610c3190612999565b60405180910390fd5b610c46848484846116b3565b50505050565b6060610c578261100e565b610c96576040517f08c379a0000000000000000000000000000000000000000000000000000000008152600401610c8d906128f9565b60405180910390fd5b6000600660008481526020019081526020016000208054610cb690612cd2565b80601f0160208091040260200160405190810160405280929190818152602001828054610ce290612cd2565b8015610d2f5780601f10610d0457610100808354040283529160200191610d2f565b820191906000526020600020905b815481529060010190602001808311610d1257829003601f168201915b505050505090506000610d4061170f565b9050600081511415610d56578192505050610d99565b600082511115610d8b578082604051602001610d73929190612653565b60405160208183030381529060405292505050610d99565b610d9484611726565b925050505b919050565b6000600560008473ffffffffffffffffffffffffffffffffffffffff1673ffffffffffffffffffffffffffffffffffffffff16815260200190815260200160002060008373ffffffffffffffffffffffffffffffffffffffff1673ffffffffffffffffffffffffffffffffffffffff16815260200190815260200160002060009054906101000a900460ff16905092915050565b610e3a61107a565b73ffffffffffffffffffffffffffffffffffffffff16610e58610b18565b73ffffffffffffffffffffffffffffffffffffffff1614610eae576040517f08c379a0000000000000000000000000000000000000000000000000000000008152600401610ea590612939565b60405180910390fd5b600073ffffffffffffffffffffffffffffffffffffffff168173ffffffffffffffffffffffffffffffffffffffff161415610f1e576040517f08c379a0000000000000000000000000000000000000000000000000000000008152600401610f1590612779565b60405180910390fd5b610f2781611480565b50565b6000610f3461107a565b90506000610f4260086117cd565b9050610f4e82826117db565b610f5881846117f9565b610f62600861186d565b7f35587d824e3ef41e8af89a43cb612d0de909dd8f6d1ee5d22eb4948d519a68078184600954604051610f97939291906129f4565b60405180910390a1505050565b60007f01ffc9a7000000000000000000000000000000000000000000000000000000007bffffffffffffffffffffffffffffffffffffffffffffffffffffffff1916827bffffffffffffffffffffffffffffffffffffffffffffffffffffffff1916149050919050565b60008073ffffffffffffffffffffffffffffffffffffffff166002600084815260200190815260200160002060009054906101000a900473ffffffffffffffffffffffffffffffffffffffff1673ffffffffffffffffffffffffffffffffffffffff1614159050919050565b600033905090565b816004600083815260200190815260200160002060006101000a81548173ffffffffffffffffffffffffffffffffffffffff021916908373ffffffffffffffffffffffffffffffffffffffff160217905550808273ffffffffffffffffffffffffffffffffffffffff166110f583610920565b73ffffffffffffffffffffffffffffffffffffffff167f8c5be1e5ebec7d5bd14f71427d1e84f3dd0314c0f7b2291e5b200ac8c7c3b92560405160405180910390a45050565b60006111468261100e565b611185576040517f08c379a000000000000000000000000000000000000000000000000000000000815260040161117c90612819565b60405180910390fd5b600061119083610920565b90508073ffffffffffffffffffffffffffffffffffffffff168473ffffffffffffffffffffffffffffffffffffffff1614806111d257506111d18185610d9e565b5b8061121057508373ffffffffffffffffffffffffffffffffffffffff166111f884610546565b73ffffffffffffffffffffffffffffffffffffffff16145b91505092915050565b8273ffffffffffffffffffffffffffffffffffffffff1661123982610920565b73ffffffffffffffffffffffffffffffffffffffff161461128f576040517f08c379a000000000000000000000000000000000000000000000000000000000815260040161128690612799565b60405180910390fd5b600073ffffffffffffffffffffffffffffffffffffffff168273ffffffffffffffffffffffffffffffffffffffff1614156112ff576040517f08c379a00000000000000000000000000000000000000000000000000000000081526004016112f6906127d9565b60405180910390fd5b61130a838383611883565b611315600082611082565b6001600360008573ffffffffffffffffffffffffffffffffffffffff1673ffffffffffffffffffffffffffffffffffffffff16815260200190815260200160002060008282546113659190612be8565b925050819055506001600360008473ffffffffffffffffffffffffffffffffffffffff1673ffffffffffffffffffffffffffffffffffffffff16815260200190815260200160002060008282546113bc9190612b07565b92505081905550816002600083815260200190815260200160002060006101000a81548173ffffffffffffffffffffffffffffffffffffffff021916908373ffffffffffffffffffffffffffffffffffffffff160217905550808273ffffffffffffffffffffffffffffffffffffffff168473ffffffffffffffffffffffffffffffffffffffff167fddf252ad1be2c89b69c2b068fc378daa952ba7f163c4a11628f55a4df523b3ef60405160405180910390a461147b838383611888565b505050565b6000600760009054906101000a900473ffffffffffffffffffffffffffffffffffffffff16905081600760006101000a81548173ffffffffffffffffffffffffffffffffffffffff021916908373ffffffffffffffffffffffffffffffffffffffff1602179055508173ffffffffffffffffffffffffffffffffffffffff168173ffffffffffffffffffffffffffffffffffffffff167f8be0079c531659141344cd1fd0a4f28419497f9722a3daafe3b4186f6b6457e060405160405180910390a35050565b8173ffffffffffffffffffffffffffffffffffffffff168373ffffffffffffffffffffffffffffffffffffffff1614156115b5576040517f08c379a00000000000000000000000000000000000000000000000000000000081526004016115ac906127f9565b60405180910390fd5b80600560008573ffffffffffffffffffffffffffffffffffffffff1673ffffffffffffffffffffffffffffffffffffffff16815260200190815260200160002060008473ffffffffffffffffffffffffffffffffffffffff1673ffffffffffffffffffffffffffffffffffffffff16815260200190815260200160002060006101000a81548160ff0219169083151502179055508173ffffffffffffffffffffffffffffffffffffffff168373ffffffffffffffffffffffffffffffffffffffff167f17307eab39ab6107e8899845ad3d59bd9653f200f220920489ca2b5937696c31836040516116a6919061271c565b60405180910390a3505050565b6116be848484611219565b6116ca8484848461188d565b611709576040517f08c379a000000000000000000000000000000000000000000000000000000000815260040161170090612759565b60405180910390fd5b50505050565b606060405180602001604052806000815250905090565b60606117318261100e565b611770576040517f08c379a000000000000000000000000000000000000000000000000000000000815260040161176790612959565b60405180910390fd5b600061177a61170f565b9050600081511161179a57604051806020016040528060008152506117c5565b806117a484611a24565b6040516020016117b5929190612653565b6040516020818303038152906040525b915050919050565b600081600001549050919050565b6117f5828260405180602001604052806000815250611bd1565b5050565b6118028261100e565b611841576040517f08c379a0000000000000000000000000000000000000000000000000000000008152600401611838906128b9565b60405180910390fd5b80600660008481526020019081526020016000209080519060200190611868929190611e29565b505050565b6001816000016000828254019250508190555050565b505050565b505050565b60006118ae8473ffffffffffffffffffffffffffffffffffffffff16611c2c565b15611a17578373ffffffffffffffffffffffffffffffffffffffff1663150b7a026118d761107a565b8786866040518563ffffffff1660e01b81526004016118f994939291906126a7565b602060405180830381600087803b15801561191357600080fd5b505af192505050801561194457506040513d601f19601f8201168201806040525081019061194191906121d5565b60015b6119c7573d8060008114611974576040519150601f19603f3d011682016040523d82523d6000602084013e611979565b606091505b506000815114156119bf576040517f08c379a00000000000000000000000000000000000000000000000000000000081526004016119b690612759565b60405180910390fd5b805181602001fd5b63150b7a0260e01b7bffffffffffffffffffffffffffffffffffffffffffffffffffffffff1916817bffffffffffffffffffffffffffffffffffffffffffffffffffffffff191614915050611a1c565b600190505b949350505050565b60606000821415611a6c576040518060400160405280600181526020017f30000000000000000000000000000000000000000000000000000000000000008152509050611bcc565b600082905060005b60008214611a9e578080611a8790612d35565b915050600a82611a979190612b5d565b9150611a74565b60008167ffffffffffffffff811115611ae0577f4e487b7100000000000000000000000000000000000000000000000000000000600052604160045260246000fd5b6040519080825280601f01601f191660200182016040528015611b125781602001600182028036833780820191505090505b5090505b60008514611bc557600182611b2b9190612be8565b9150600a85611b3a9190612d7e565b6030611b469190612b07565b60f81b818381518110611b82577f4e487b7100000000000000000000000000000000000000000000000000000000600052603260045260246000fd5b60200101907effffffffffffffffffffffffffffffffffffffffffffffffffffffffffffff1916908160001a905350600a85611bbe9190612b5d565b9450611b16565b8093505050505b919050565b611bdb8383611c4f565b611be8600084848461188d565b611c27576040517f08c379a0000000000000000000000000000000000000000000000000000000008152600401611c1e90612759565b60405180910390fd5b505050565b6000808273ffffffffffffffffffffffffffffffffffffffff163b119050919050565b600073ffffffffffffffffffffffffffffffffffffffff168273ffffffffffffffffffffffffffffffffffffffff161415611cbf576040517f08c379a0000000000000000000000000000000000000000000000000000000008152600401611cb6906128d9565b60405180910390fd5b611cc88161100e565b15611d08576040517f08c379a0000000000000000000000000000000000000000000000000000000008152600401611cff906127b9565b60405180910390fd5b611d1460008383611883565b6001600360008473ffffffffffffffffffffffffffffffffffffffff1673ffffffffffffffffffffffffffffffffffffffff1681526020019081526020016000206000828254611d649190612b07565b92505081905550816002600083815260200190815260200160002060006101000a81548173ffffffffffffffffffffffffffffffffffffffff021916908373ffffffffffffffffffffffffffffffffffffffff160217905550808273ffffffffffffffffffffffffffffffffffffffff16600073ffffffffffffffffffffffffffffffffffffffff167fddf252ad1be2c89b69c2b068fc378daa952ba7f163c4a11628f55a4df523b3ef60405160405180910390a4611e2560008383611888565b5050565b828054611e3590612cd2565b90600052602060002090601f016020900481019282611e575760008555611e9e565b82601f10611e7057805160ff1916838001178555611e9e565b82800160010185558215611e9e579182015b82811115611e9d578251825591602001919060010190611e82565b5b509050611eab9190611eaf565b5090565b5b80821115611ec8576000816000905550600101611eb0565b5090565b6000611edf611eda84612a57565b612a32565b905082815260208101848484011115611ef757600080fd5b611f02848285612c90565b509392505050565b6000611f1d611f1884612a88565b612a32565b905082815260208101848484011115611f3557600080fd5b611f40848285612c90565b509392505050565b600081359050611f57816133c7565b92915050565b600081359050611f6c816133de565b92915050565b600081359050611f81816133f5565b92915050565b600081519050611f96816133f5565b92915050565b600082601f830112611fad57600080fd5b8135611fbd848260208601611ecc565b91505092915050565b600082601f830112611fd757600080fd5b8135611fe7848260208601611f0a565b91505092915050565b600081359050611fff8161340c565b92915050565b60006020828403121561201757600080fd5b600061202584828501611f48565b91505092915050565b6000806040838503121561204157600080fd5b600061204f85828601611f48565b925050602061206085828601611f48565b9150509250929050565b60008060006060848603121561207f57600080fd5b600061208d86828701611f48565b935050602061209e86828701611f48565b92505060406120af86828701611ff0565b9150509250925092565b600080600080608085870312156120cf57600080fd5b60006120dd87828801611f48565b94505060206120ee87828801611f48565b93505060406120ff87828801611ff0565b925050606085013567ffffffffffffffff81111561211c57600080fd5b61212887828801611f9c565b91505092959194509250565b6000806040838503121561214757600080fd5b600061215585828601611f48565b925050602061216685828601611f5d565b9150509250929050565b6000806040838503121561218357600080fd5b600061219185828601611f48565b92505060206121a285828601611ff0565b9150509250929050565b6000602082840312156121be57600080fd5b60006121cc84828501611f72565b91505092915050565b6000602082840312156121e757600080fd5b60006121f584828501611f87565b91505092915050565b60006020828403121561221057600080fd5b600082013567ffffffffffffffff81111561222a57600080fd5b61223684828501611fc6565b91505092915050565b60006020828403121561225157600080fd5b600061225f84828501611ff0565b91505092915050565b6000806040838503121561227b57600080fd5b600061228985828601611ff0565b925050602061229a85828601611ff0565b9150509250929050565b6122ad81612c1c565b82525050565b6122bc81612c2e565b82525050565b60006122cd82612ab9565b6122d78185612acf565b93506122e7818560208601612c9f565b6122f081612e6b565b840191505092915050565b600061230682612ac4565b6123108185612aeb565b9350612320818560208601612c9f565b61232981612e6b565b840191505092915050565b600061233f82612ac4565b6123498185612afc565b9350612359818560208601612c9f565b80840191505092915050565b6000612372603283612aeb565b915061237d82612e7c565b604082019050919050565b6000612395602683612aeb565b91506123a082612ecb565b604082019050919050565b60006123b8602583612aeb565b91506123c382612f1a565b604082019050919050565b60006123db601c83612aeb565b91506123e682612f69565b602082019050919050565b60006123fe602483612aeb565b915061240982612f92565b604082019050919050565b6000612421601983612aeb565b915061242c82612fe1565b602082019050919050565b6000612444602c83612aeb565b915061244f8261300a565b604082019050919050565b6000612467603883612aeb565b915061247282613059565b604082019050919050565b600061248a601183612aeb565b9150612495826130a8565b602082019050919050565b60006124ad602a83612aeb565b91506124b8826130d1565b604082019050919050565b60006124d0602983612aeb565b91506124db82613120565b604082019050919050565b60006124f3602e83612aeb565b91506124fe8261316f565b604082019050919050565b6000612516602083612aeb565b9150612521826131be565b602082019050919050565b6000612539603183612aeb565b9150612544826131e7565b604082019050919050565b600061255c602c83612aeb565b915061256782613236565b604082019050919050565b600061257f602083612aeb565b915061258a82613285565b602082019050919050565b60006125a2602f83612aeb565b91506125ad826132ae565b604082019050919050565b60006125c5602183612aeb565b91506125d0826132fd565b604082019050919050565b60006125e8600083612ae0565b91506125f38261334c565b600082019050919050565b600061260b603183612aeb565b91506126168261334f565b604082019050919050565b600061262e601883612aeb565b91506126398261339e565b602082019050919050565b61264d81612c86565b82525050565b600061265f8285612334565b915061266b8284612334565b91508190509392505050565b6000612682826125db565b9150819050919050565b60006020820190506126a160008301846122a4565b92915050565b60006080820190506126bc60008301876122a4565b6126c960208301866122a4565b6126d66040830185612644565b81810360608301526126e881846122c2565b905095945050505050565b600060408201905061270860008301856122a4565b6127156020830184612644565b9392505050565b600060208201905061273160008301846122b3565b92915050565b6000602082019050818103600083015261275181846122fb565b905092915050565b6000602082019050818103600083015261277281612365565b9050919050565b6000602082019050818103600083015261279281612388565b9050919050565b600060208201905081810360008301526127b2816123ab565b9050919050565b600060208201905081810360008301526127d2816123ce565b9050919050565b600060208201905081810360008301526127f2816123f1565b9050919050565b6000602082019050818103600083015261281281612414565b9050919050565b6000602082019050818103600083015261283281612437565b9050919050565b600060208201905081810360008301526128528161245a565b9050919050565b600060208201905081810360008301526128728161247d565b9050919050565b60006020820190508181036000830152612892816124a0565b9050919050565b600060208201905081810360008301526128b2816124c3565b9050919050565b600060208201905081810360008301526128d2816124e6565b9050919050565b600060208201905081810360008301526128f281612509565b9050919050565b600060208201905081810360008301526129128161252c565b9050919050565b600060208201905081810360008301526129328161254f565b9050919050565b6000602082019050818103600083015261295281612572565b9050919050565b6000602082019050818103600083015261297281612595565b9050919050565b60006020820190508181036000830152612992816125b8565b9050919050565b600060208201905081810360008301526129b2816125fe565b9050919050565b600060208201905081810360008301526129d281612621565b9050919050565b60006020820190506129ee6000830184612644565b92915050565b6000606082019050612a096000830186612644565b8181036020830152612a1b81856122fb565b9050612a2a6040830184612644565b949350505050565b6000612a3c612a4d565b9050612a488282612d04565b919050565b6000604051905090565b600067ffffffffffffffff821115612a7257612a71612e3c565b5b612a7b82612e6b565b9050602081019050919050565b600067ffffffffffffffff821115612aa357612aa2612e3c565b5b612aac82612e6b565b9050602081019050919050565b600081519050919050565b600081519050919050565b600082825260208201905092915050565b600081905092915050565b600082825260208201905092915050565b600081905092915050565b6000612b1282612c86565b9150612b1d83612c86565b9250827fffffffffffffffffffffffffffffffffffffffffffffffffffffffffffffffff03821115612b5257612b51612daf565b5b828201905092915050565b6000612b6882612c86565b9150612b7383612c86565b925082612b8357612b82612dde565b5b828204905092915050565b6000612b9982612c86565b9150612ba483612c86565b9250817fffffffffffffffffffffffffffffffffffffffffffffffffffffffffffffffff0483118215151615612bdd57612bdc612daf565b5b828202905092915050565b6000612bf382612c86565b9150612bfe83612c86565b925082821015612c1157612c10612daf565b5b828203905092915050565b6000612c2782612c66565b9050919050565b60008115159050919050565b60007fffffffff0000000000000000000000000000000000000000000000000000000082169050919050565b600073ffffffffffffffffffffffffffffffffffffffff82169050919050565b6000819050919050565b82818337600083830152505050565b60005b83811015612cbd578082015181840152602081019050612ca2565b83811115612ccc576000848401525b50505050565b60006002820490506001821680612cea57607f821691505b60208210811415612cfe57612cfd612e0d565b5b50919050565b612d0d82612e6b565b810181811067ffffffffffffffff82111715612d2c57612d2b612e3c565b5b80604052505050565b6000612d4082612c86565b91507fffffffffffffffffffffffffffffffffffffffffffffffffffffffffffffffff821415612d7357612d72612daf565b5b600182019050919050565b6000612d8982612c86565b9150612d9483612c86565b925082612da457612da3612dde565b5b828206905092915050565b7f4e487b7100000000000000000000000000000000000000000000000000000000600052601160045260246000fd5b7f4e487b7100000000000000000000000000000000000000000000000000000000600052601260045260246000fd5b7f4e487b7100000000000000000000000000000000000000000000000000000000600052602260045260246000fd5b7f4e487b7100000000000000000000000000000000000000000000000000000000600052604160045260246000fd5b6000601f19601f8301169050919050565b7f4552433732313a207472616e7366657220746f206e6f6e20455243373231526560008201527f63656976657220696d706c656d656e7465720000000000000000000000000000602082015250565b7f4f776e61626c653a206e6577206f776e657220697320746865207a65726f206160008201527f6464726573730000000000000000000000000000000000000000000000000000602082015250565b7f4552433732313a207472616e736665722066726f6d20696e636f72726563742060008201527f6f776e6572000000000000000000000000000000000000000000000000000000602082015250565b7f4552433732313a20746f6b656e20616c7265616479206d696e74656400000000600082015250565b7f4552433732313a207472616e7366657220746f20746865207a65726f2061646460008201527f7265737300000000000000000000000000000000000000000000000000000000602082015250565b7f4552433732313a20617070726f766520746f2063616c6c657200000000000000600082015250565b7f4552433732313a206f70657261746f7220717565727920666f72206e6f6e657860008201527f697374656e7420746f6b656e0000000000000000000000000000000000000000602082015250565b7f4552433732313a20617070726f76652063616c6c6572206973206e6f74206f7760008201527f6e6572206e6f7220617070726f76656420666f7220616c6c0000000000000000602082015250565b7f4e6f6e6578697374656e7420746f6b656e000000000000000000000000000000600082015250565b7f4552433732313a2062616c616e636520717565727920666f7220746865207a6560008201527f726f206164647265737300000000000000000000000000000000000000000000602082015250565b7f4552433732313a206f776e657220717565727920666f72206e6f6e657869737460008201527f656e7420746f6b656e0000000000000000000000000000000000000000000000602082015250565b7f45524337323155524953746f726167653a2055524920736574206f66206e6f6e60008201527f6578697374656e7420746f6b656e000000000000000000000000000000000000602082015250565b7f4552433732313a206d696e7420746f20746865207a65726f2061646472657373600082015250565b7f45524337323155524953746f726167653a2055524920717565727920666f722060008201527f6e6f6e6578697374656e7420746f6b656e000000000000000000000000000000602082015250565b7f4552433732313a20617070726f76656420717565727920666f72206e6f6e657860008201527f697374656e7420746f6b656e0000000000000000000000000000000000000000602082015250565b7f4f776e61626c653a2063616c6c6572206973206e6f7420746865206f776e6572600082015250565b7f4552433732314d657461646174613a2055524920717565727920666f72206e6f60008201527f6e6578697374656e7420746f6b656e0000000000000000000000000000000000602082015250565b7f4552433732313a20617070726f76616c20746f2063757272656e74206f776e6560008201527f7200000000000000000000000000000000000000000000000000000000000000602082015250565b50565b7f4552433732313a207472616e736665722063616c6c6572206973206e6f74206f60008201527f776e6572206e6f7220617070726f766564000000000000000000000000000000602082015250565b7f6661696c656420746f2077697468647261772066756e64730000000000000000600082015250565b6133d081612c1c565b81146133db57600080fd5b50565b6133e781612c2e565b81146133f257600080fd5b50565b6133fe81612c3a565b811461340957600080fd5b50565b61341581612c86565b811461342057600080fd5b5056fea2646970667358221220fece12d872c34bd4fe93618ed17e9fda58840bc2a9a661eba23c42f3f912edab64736f6c63430008040033",
    "linkReferences": {},
    "deployedLinkReferences": {}
}